1234ABCDPMMITSDITSD123456789012Org Title                               2026040100001001999999998Builder, Bob                  00000000000123456 12345678Code56789012Expert Developer                        12345678JobClassCodeJobTitle                                SL2026030120260401000000010025000 000000001625000 000000000826000 000000000400000 000000000150000 000000000050000 000000000200000 000000000300000 000000010000000 
1234ABCDPMMITSDITSD123456789012Org Title                               2026040100001002999999997Nobody, Joe                   00000000000123456 12345678Code56789012Expert Developer                        12345678JobClassCodeJobTitle                                SL2026030120260401000000010025000 000000001625000 000000000826000 000000000400000 000000000150000 000000000050000 000000000200000 000000000300000 000000010000000 
1234ABCDPMMITSDITSD123456789012Org Title                               2026040100001003999999996Whatabout, Fred               00000000000123456 12345678Code56789012Expert Developer                        12345678JobClassCodeJobTitle                                SL2026030120260401000000010025000 000000001625000 000000000826000 000000000400000 000000000150000 000000000050000 000000000200000 000000000300000 000000010000000 
1234ABCDPMMITSDITSD123456789012Org Title                               2026040100001004999999995Realee, Harry                 00000000000123456 12345678Code56789012Expert Developer                        12345678JobClassCodeJobTitle                                SL2026030120260401000000010025000 000000001625000 000000000826000 000000000400000 000000000150000 000000000050000 000000000200000 000000000300000 000000010000000 
1234ABCDPMMITSDITSD123456789012Org Title                               2026040100001005999999994Contrary, Mary                00000000000123456 12345678Code56789012Expert Developer                        12345678JobClassCodeJobTitle                                SL2026030120260401000000010025000 000000001625000 000000000826000 000000000400000 000000000150000 000000000050000 000000000200000 000000000300000 000000010000000 
